:020000042000DA
:1000000018481949086006C881F30888104717483E
:100010000068002801D01648F3E71649164A002068
:1000200000E001C19142FCD1144988471449884736
:100030001449884700BEFDE7D0200020D0200020D2
:1000400054210020000004200000042000000420AF
:100050000010042000100420001004200000000004
:10006000704700000001002008ED00E0000000D013
:10007000000000005421002030250020E11B00205A
:1000800081080020D91B002006005250ABB36053FA
:100090007420002006005250861C03028420002099
:1000A000060052505422A29D90200020F2EB88714D
:1000B000B8200020CC2000203800002090A31AE7B0
:1000C0000000000000000000000000000000000030
:1000D0000000000000000000000000000000000020
:1000E0000000000000000000000000000000000010
:1000F0000000000000000000000000000000000000
:10010000002004200F000020CB010020CD010020A2
:10011000C9010020C9010020C9010020C901002037
:10012000C9010020C9010020C9010020CF01002021
:10013000C9010020C9010020D1010020D301002005
:10014000C1010020C1010020C1010020C101002027
:10015000C1010020C1010020C1010020C101002017
:10016000C1010020C1010020C1010020C101002007
:10017000C1010020C1010020C1010020C1010020F7
:10018000C1010020C1010020C1010020C1010020E7
:10019000C1010020C1010020C1010020C1010020D7
:1001A000C1010020C1010020C1010020C1010020C7
:1001B000C1010020C1010020C1010020C1010020B7
:1001C000EFF30580103800BE00BE00BE00BE00BECA
:1001D00000BE00BE142310B5188804331B880249E2
:1001E0009847804710BDC04643580000034B1A682B
:1001F000C0239B009343024A136070470C80014068
:100200000C900140054B1A6880239B005340C0228C
:1002100092001340024A13607047C0460C800140B0
:100220000C9001401423F0B5D6464F4646469A46F8
:10023000814618880433C0B598460E001B882649AD
:1002400014009847534607001888434623491B88E3
:100250009847534605001888434621491B8898470C
:100260008046B847A847FFF7CDFF002C1BD0C02120
:1002700022000827022049053D008B6A1D401842D4
:100280000BD0002C09D0131B0D2B1FD84B461B780D
:10029000013C0B6601239C46E1442300002D0CD158
:1002A0001343002BE8D1FFF7A1FFC047FFF792FFF0
:1002B000E0BCBA46B146A846F0BD002AF1D00B6EAC
:1002C000013A3370130001362343EAE7002DD3D0FF
:1002D000002AD1D0F3E7C046494600004558000047
:1002E00046430000F0B5C646150000B504001E00E8
:1002F0000268EFF3108172B61368002BFCD0BFF3D5
:100300005F8F0423E356002B2DDB2268BFF35F8F42
:100310000020106081F31088D0221206127852B2A9
:1003200090469A4203D1002080BCB846F0BD002719
:100330000BE02368BFF35F8F1F6081F310882800F4
:10034000310001F007F80028EDD12268EFF31081A9
:1003500072B61368002BFCD0BFF35F8F23797F2B1D
:10036000E7D9434602E0D0231B061B6823712368AC
:10037000BFF35F8F00221A6081F310880120D3E75A
:100380000268EFF3108172B61368002BFCD0BFF344
:100390005F8FFF2303710368BFF35F8F00221A6032
:1003A00081F3108840BF7047142310B518880433B8
:1003B0001B8802499847804710BDC046435800003B
:1003C000074B5B680360074B5A6842609A6882601B
:1003D000DA68C2601A695B69026143617047C046AE
:1003E00000000240040002400268074B5A60426865
:1003F000064B5A6082689A60C268DA6002691A61C4
:1004000042695A617047C046000002400400024041
:10041000F0B5D6464F4646468023C0B54218040084
:100420000D0086B09B049A422CD8142718263888D1
:100430003388164998473388824615493888984743
:100440003388814613493888984733881249804653
:100450003888984706006846FFF7B2FFD047C8477C
:100460008022D823290020005202C047B047FFF75E
:100470009BFF6846FFF7B8FF06B0E0BCBA46B1463E
:10048000A846F0BD01F0B4F9CFE7C04649460000E8
:10049000455800005245000046430000F0B54E4666
:1004A0004546DE4657468023E0B515008218040015
:1004B000894687B09B049A422BD81427182638887F
:1004C00033881549984733888346144938889847B4
:1004D00033888246124938889847338811498046C4
:1004E0003888984706006846FFF76AFFD847D04724
:1004F0002A0049462000C047B047FFF755FF68462D
:10050000FFF772FF07B0F0BCBB46B246A946A04653
:10051000F0BD01F06DF9D0E74946000045580000F4
:100520005250000046430000F0B54546DE465746AF
:100530004E46E0B5554BC9B0C7180D000D22FF213E
:1005400004A801F01BFB524B03AE03930123B380BD
:100550002B789846002B00D193E0FF3B5A42534141
:100560000022DBB269780191002900D187E00022E6
:10057000FF2900D083E0A9788946002900D17CE0DA
:100580000022FF2900D078E0E9788A46002900D1CE
:1005900071E00022FF2900D06DE029798B46002907
:1005A0005DD01A00FF2900D06EE06B790093002B1C
:1005B0005AD13F2344469C43C03C63425C41E4B271
:1005C00002AB9C460B20290006226044B47101F066
:1005D000DBFA1D222F4B0199E318D34143448C468B
:1005E000D3416344D3414B44D3415344D341009955
:1005F0005B448C46D3416344D341274A02A953400C
:100600008C461122190A6244517019021370090EA6
:100610001B0E9170D370FF21F02208AC0CA81D1C9A
:1006200001F0ACFA230007CE07C332681D711A60CF
:10063000EFF3108572B6802138004901FFF7E8FE1C
:100640008022210038005200FFF728FF85F3108830
:1006500049B0F0BCBB46B246A946A046F0BD6B7996
:100660000093002B03D00022009BFF2BA1D100247C
:10067000A242A5D19DE700238FE7002384E7002352
:1006800079E7012200236DE700228EE700D0FFFF0B
:1006900049454C4240C44B01A9D7E1B1F8B5DE460B
:1006A0004E46574645460400E0B5012600F028FABC
:1006B000A6400620D02400F023FA402324066662D8
:1006C0000A2063620021A661A36100F017FE0223E5
:1006D0009946042340279846082501200021A66159
:1006E00000F00CFE01200021676100F007FE013DD3
:1006F00001200021A76100F001FE002DEDD10123B2
:100700005B429C46E0444346002BE5D11023402544
:100710009846E0239B46DF3B07279A4610E0666138
:100720000120002100F0EAFD01200021656100F0B8
:10073000E5FD01200021A56100F0E0FD013F06D3A9
:100740005B465246FB401A42E9D1A661E8E708271A
:1007500001200021A66100F0D1FD0120002165618A
:1007600000F0CCFD013F01200021A56100F0C6FD95
:10077000002FEDD1083701200021A66100F0BEFD59
:1007800001200021656100F0B9FD013F0120002139
:10079000A56100F0B3FD002FEDD108370120002145
:1007A000A66100F0ABFD01200021656100F0A6FD0F
:1007B000013F01200021A56100F0A0FD002FEDD137
:1007C00001235B429C46E0444346002BA1D1082311
:1007D0009A46F73398460725012713E06661012002
:1007E000002100F08BFD40239B4601200021636126
:1007F00000F084FD5B4601200021A36100F07EFD36
:10080000013D05D34346EB401F42E7D1A661E6E731
:1008100001235B429C46E2445346002BDBD102207D
:1008200000F07EFD4B46012B02D00123994650E794
:10083000F0BCBB46B246A946A046F8BD70B5032041
:10084000FFF72CFF0720FFF729FF192000F058F9C8
:10085000D0258023002401262D069B046B62AB610A
:10086000200000F04DF93300A340200000220021B9
:10087000AB62013400F02AF91E2CF1D170BDC046E4
:10088000F0B5DE46454657464E469F23E0B5012566
:1008900087B003AC02AA2100137002A80422FFF75C
:1008A000C1FCE37804AC9D40FFF7C8FF290000209D
:1008B000FFF7AEFD8021744B4901E818FFF7A8FD52
:1008C0008022724952000020FFF7E8FD200001F06D
:1008D000F3FA00F0CFFD23784B406D494340594077
:1008E0000A001B23DA4160786A4900024140514006
:1008F000D941A078684A000442405140D941E0788B
:10090000664A000642404A40DA4120796449414043
:100910004A40DA4160796349000241405140D9417F
:10092000A079614A000442405140D941E0795F4AD0
:10093000000642404A405E49DA410B0053408A4279
:1009400000D15C4B1F229346063A92465A0353400D
:100950005A0C53401A0059014A408B4244D0530369
:10096000D1B25A40530C5A4053019A4251D053408D
:100970005803DAB24340580C43405801834276D0C2
:1009800043405803DFB24340580C43405801834270
:100990001DD11F23F5269846474BDBB29C46C0234A
:1009A0001943634612023F0411433943637133060E
:1009B0000E001E4343460496237121002800FFF7D2
:1009C000B3FDFFF73BFF0021002000F0EBFE4340AA
:1009D0005803DEB24340580C43405801834209D1CA
:1009E000F5239846354BD8E75A4657462826F52131
:1009F0003348344B4340D8B2009058034340580C1E
:100A000043405801844683420BD1009B98462E4BAD
:100A1000C3E72820F52256465F46294B00909C46A6
:100A2000284B60464340D8B284463F2001407F387F
:100A30000143C8B28146380011400191009930400D
:100A400008401840FF281BD10199FF2900D17DE7FC
:100A5000009B4946984663466371434612023F0431
:100A60001143360639430E4304962371A5E7C0238C
:100A70001943983B9C460F3B98461F26F52790E765
:100A8000009B494698468CE700F0FFFF281F002096
:100A9000179E3CA5B979379EBA79379EBB79379EA8
:100AA000BC79379EBD79379EBE79379EBF79379E18
:100AB000C079379EEFBECED1190CE0911FC7AE4072
:100AC000A0275A053DD12A60F5792B6D0B4B80008C
:100AD0009C46604400290ED100230431002A00D135
:100AE0001900802203685201594094460C23604447
:100AF0000B40036070470C210823EFE704C001405E
:100B00000123D02283404021120693629361094A57
:100B100083009A181268C0005140C0220A4006495A
:100B20008C4663441A60054B9C4605236044436031
:100B30007047C04604C0014004D00140004001405D
:100B40000FB400B5084883B001F08EF9049B002B68
:100B500007D005A91800019101F024F8034801F01D
:100B600083F9012001F036F82820002038200020E9
:100B700070B5EFF3108C72B60D4D2B68002BFCD0C6
:100B8000BFF35F8F0724CB08C618C05C01230C405D
:100B9000A3401C000440034207D103433370BFF35A
:100BA0005F8F2C608CF3108870BD1000FFF7C8FFBA
:100BB0002C0100D0044A1078431CDBB2172B00D95B
:100BC000102313707047C046D02000200021044B32
:100BD000044ABFF35F8F02C39342FAD17047C04605
:100BE000000100D0800100D0054B064A1360064A80
:100BF000136053609360D3601361536193617047D6
:100C00008080808000E400E004E400E01F231840BE
:100C10001E3B8340002905D0C021044A490053509F
:100C200013607047802201498B50FAE700E100E031
:100C300070B50D00EFF3108672B60F4A1368002BE3
:100C4000FCD0BFF35F8F0D4B10309B6884001B59A5
:100C50000B4A934203D09D4201D000F0C9FD074BDF
:100C60009B681D51BFF35F8FBFF35F8F0022024B64
:100C70001A6086F3108870BD240100D000ED00E0FA
:100C8000C1010020024B9C4661448900016070470D
:100C900040000034F8B5134D134E2C00FF27B54229
:100CA0001ED22368002B0FD0FFF784FF010028001D
:100CB000FFF7E8FFA780BFF35F8F0834B4420FD27D
:100CC00023682500002BEFD1FFF774FF01002800F7
:100CD000FFF7D8FF2771BFF35F8F0834B442EFD31B
:100CE000F8BDC04610210020182100200A4B1968C9
:100CF000EFF3108072B60A68002AFCD0BFF35F8F52
:100D00001B68BFF35F8F00221A6080F3108840BF1A
:100D1000002000217047C0462C250020F0B5DE469B
:100D200057464E464546E0B585B0EFF305820323AE
:100D300013409A0011000392B64A5258904601227D
:100D40009A409146B44B1A604B46B44843634346BD
:100D500008229B5E9A46002B3DDA43469B881BB2D5
:100D6000002B00DBA1E043469B79002B00D0F3E091
:100D7000434608241C5F002C23DB42465269630073
:100D800094461B19DB0063449C68DD68631C00D13A
:100D90000FE1A248039984466144826A0B69A61A4E
:100DA0009B1A9E4215D34A46036A1A4211D09B48A9
:100DB00000F058FB241A8D41002D02DCC4D1002C18
:100DC000C2D040BF05B0F0BCBB46B246A946A04663
:100DD000F0BD0C61EBE7424652695B009346534419
:100DE000DB009B445B469E68DF6800F03BFB801B9A
:100DF000B9410029B1DB002F00DAE5E05B46884A03
:100E00001B69934200D1D8E041465A460820085E4B
:100E10005288000410435A465169984704000D0057
:100E200023002B4300D1CFE0002D00DBE8E0361B90
:100E3000AF4134003D005B469C60DD600021595E9F
:100E4000002900DA89E743465B6922009C462B00B3
:100E500048004018C00060448668C768921BBB41C8
:100E6000002B00DA79E743466646020000940195BC
:100E700019810CE07B00DB19DB00F3180098019965
:100E80009C68DD68001BA941002904DB1A000023CF
:100E9000D75E002FEEDA5B461F8053461380434631
:100EA0009B881BB2002B00DA5DE743461A69EFF31B
:100EB000108172B61368002BFCD0BFF35F8F4346DE
:100EC0009B8842461BB29A4601235B42938013697A
:100ED000BFF35F8F00221A6081F310885346002B06
:100EE00000DA40E743465B699C46082343449B463F
:100EF00053465F0043465744FF0008229A5E67440A
:100F00005E46BC68FD68002A19DB3B000094019531
:100F100067469C4604E01E000023F25E002A0BDBBD
:100F20000098019953009B18DB00FB189C68DD6852
:100F3000001BA9410029EEDA6346BC461F00534658
:100F4000338000217B5E3A809A46002BD0DA4346FC
:100F50009B79002B00D10BE7002342469371434657
:100F600046460821595E08364B1C00D129E7474602
:100F70008C46556902E006004B1C17D04B005B18ED
:100F8000DB00E8180A00E95E43881BB2002BF2DAA6
:100F900001235B42DC178360C4606245ECD0318082
:100FA0003B89944603803A814B1CE7D1B84664469E
:100FB000E1E66B1C00D0ECE6F9E65B465C692000DC
:100FC00023699847002821D15B4642461B8813813C
:100FD0001269EFF3108372B611680029FCD0BFF3D9
:100FE0005F8F4246594652880A8042465146518098
:100FF0001269BFF35F8F0021116083F31088ACE6A4
:10100000064800F02FFA24184D4114E7656824685B
:1010100006E7C046102500203C7005400040054012
:101020001D0D002070B52E4C2569002D04D00A211D
:101030002C48FFF727FE70BD2B4E0321300000F037
:1010400007FAE660FFF7B6FD284B03229C46D02343
:1010500022701B061B6801216370254B6044A3604E
:101060000F23800020610220638063694942A180D0
:1010700019800231198647311D83585218315A524E
:1010800075325C3999521832013199521832013156
:101090009952183201319952083518329D52023155
:1010A000183299521832013199521832013199523D
:1010B00018320131995218320131995218320131E6
:1010C00099520C4B0C49DC6001303562FFF7B0FDE2
:1010D00001210320FFF79AFD084B1D60A7E7C046DA
:1010E000D42000202C250020004005404000003482
:1010F000FFFF1000102500201D0D00203860054066
:1011000070B5C646010000B50469EFF3108C72B6E5
:1011100020680028FCD0BFF35F8F02200D5E486975
:101120006C0080466419E4004444002D01DB2088F3
:1011300048800869BFF35F8F002606608CF3108833
:10114000002D30DBE36063880598013320615B0488
:1011500006985B0CA26060611A1C002B21D090B233
:101160002B04628018430A69EFF3108672B6136885
:10117000002BFCD0BFF35F8F8B8823808D800B69A1
:10118000BFF35F8F00221A6086F310880B7801325C
:101190009A40CB6805498C4663441A6040BCB0460F
:1011A00070BD0122DBE701204042F7E73C20000050
:1011B00010B543890A14934233DD53009B184269EA
:1011C000DB00944604696344EFF3108C72B6226826
:1011D000002AFCD0BFF35F8F5A88090494B2090C2F
:1011E0008A4208D00369BFF35F8F00221A608CF334
:1011F0001088002010BD8022120214435C8001235D
:1012000002698371BFF35F8F002111608CF3108836
:10121000054902788C469340C268012062441360FD
:10122000E8E70020E6E7C0463C200000F0B50400F7
:101230000D0006267642F717C64636196F4100B5EF
:1012400082B08F4214D811D000F014F932003B0064
:10125000121A8B41002B15DC002B44D020002900F2
:1012600000F012F902B080BCB846F0BD8642EBD95E
:101270000026002700F0FEF832003B00121A8B41D6
:10128000002BE9DD00F0F6F832003B00121A8B412A
:10129000002B0ADB00230193144B32000093144807
:1012A0003B00FFF72DFF0028D8DBB0460026BC46E8
:1012B000104A114F7B6A9C4504D8B96A8845CDD93C
:1012C0009C45CBD11168EFF3108072B60B68002BF0
:1012D000FCD0BFF35F8F1368BFF35F8F1E6080F396
:1012E000108820BFE6E7002AB8D0CBE7ED0C00203D
:1012F000D42000202C2500200040054070B50400BB
:101300000D0000F0B7F800196941002902DBFFF772
:101310008DFF70BD012001494042F8E7FFFFFF7FCC
:1013200070B5060000F0A6F8FA2204000D000023B4
:1013300030000021920000F0B7FB0019694100293C
:1013400002DBFFF773FF70BD012001494042F8E75F
:10135000FFFFFF7FF0B5CE46474680B504000D0085
:1013600083B0EFF30587002F0DD0364A0020536A73
:101370008B4203D3926A0130A24250D303B0C0BC67
:10138000B946B046F0BD304B9846DB6899464346B7
:1013900048461E7800F066F80B0049460200043605
:1013A000B600715820008E1A2900801A99418F4288
:1013B00011DC0ED020BF234A0020536AAB42DDD39C
:1013C000926A0130A242D9D2E81A421E9041C0B2BC
:1013D000D4E78642EED900F04DF822002B00121A15
:1013E0008B41002B20DB00230193184B220000933C
:1013F00040462B00FFF784FE011E15DD114B2E0029
:101400005A6A95421CD89B6AA34217D34046FFF7FD
:10141000CFFE0C4A0020536A9E42AFD8D0E7581A3C
:10142000421E9041C0B2A9E7064A0020536AAB426F
:10143000A4D3926A0120A242A0D2C5E79542E5D189
:1014400020BFE3E700400540D4200020ED0C002041
:1014500010B5024A0248FFF78BFB10BD3C2000206C
:10146000D82400200300416A0A00986A596A8A4217
:10147000FAD17047034B596A0A00986A596A914237
:10148000FAD1704700400540064A536A9942FCD899
:1014900007D1044B02E05A6A914202D19A6A824211
:1014A000F9D3704700400540F8B5DE464E46574632
:1014B0004546E0B58B4605000A991800160000F075
:1014C00067FA0A9B6C001F02324B64199C46A40009
:1014D0006444636881469F4200D967602B1FDBB27A
:1014E0009846012B30D9C02380229B01E3181201BA
:1014F0001A60294BAD0059599A4600291BD1226820
:1015000076017240E0268023164042465B01E318D4
:101510001E60012A30D9802380229B01E31812012A
:101520001A6053464A4667605A51F0BCBB46B24601
:10153000A946A046F8BD586900F02AFA431C580095
:10154000C0180338FDD2DAE75B46012BCBD1C023AC
:1015500003229B01E3181A60023AA3681A42FCD0E6
:10156000E0232268760156401E4080230A4A5B0130
:101570009246E3181E60AD005A462168514003228E
:101580000A401A6001225B469A40A3681A42FCD0C6
:10159000C1E7C04600800040DC240020F0B546468C
:1015A0004F46D646C0B51F00344B44009C46241815
:1015B000A4006444636888461600FF2B02D8802389
:1015C0005B006360031FDBB29A46012B30D9C02356
:1015D00080229B01E31812011A60294B850059599A
:1015E000994600291BD1226876017240E0268023AB
:1015F000164052465B01E3181E60012A30D9802351
:1016000080229B01E31812011A6080235B00636053
:101610004B465F51E0BCBA46B146A846F0BD58699A
:1016200000F0B6F9431C5800C0180338FDD2DAE7C1
:101630004346012BCBD1C02303229B01E3181A6040
:10164000023AA3681A42FCD0E02322687601564091
:101650001E4080230A4A5B019146E3181E60850004
:1016600042462168514003220A401A600123424643
:101670009340A2681342FCD0C1E7C04600800040FE
:10168000DC240020014B8000C0587047DC2400207F
:10169000F8B5040020481D0017000E0000F078F98E
:1016A0000100380000F074F9069B29041B0319435C
:1016B0002368002B1EDB194B194DE21853425A4187
:1016C00080235B019C461203164B62441A60164B42
:1016D0001A6017002B689F43FBD1144B2660E21859
:1016E0002123A06013602368002BFCDA0823E1604B
:1016F0001360F8BD3F2322681340B342DBD1A368D7
:101700001B051B0D8342D6D1EE22E368D2021340A3
:101710008B42D0D1EDE7C046001BB7000040FDBFB3
:1017200008C0004000E0004000F00040043000002D
:101730008023024A9B000B43D36270470080054020
:10174000142310B50100188804331B88984710BD76
:10175000162310B50100188802331B88984710BD66
:10176000F8B54746CE4680B50F1E19D014239946CA
:10177000043304000025012698464B46188843464A
:1017800021681B88984701C4431E98410135404297
:101790000640AF42F1D13000C0BCB946B046F8BDFA
:1017A0000126F8E7142370B50400188804330D00EF
:1017B0001B88034998472900030020009847C0462A
:1017C00055420000AA23064A1B0113608D235B00CB
:1017D000D3600449044B19605368002BFCDA70474E
:1017E0000040024000B0FA00006002407047C0466E
:1017F00010B50148FFF7A4F96020002070B5074D2F
:10180000074EB54209D20024013E761BB60808CD2A
:10181000984723000134B342F9D170BD182100204C
:1018200050210020054B064A06491A60064A074B1C
:101830001A6010000B689843FBD1704700E000402D
:10184000BFCDFBFE08C00040FE7F3C0000F0004022
:10185000044BDB6C002B03D18022034BD2021A60B5
:101860007047C046000011504C201150044A054BEF
:101870001A60054A1368DB018033FBD17047C0460C
:10188000FFFFFF0100F0004008C000404022034B72
:101890009A675A671A67DA667047C04600F00140D7
:1018A00010B5FFF793F910BD002310B5294C82B095
:1018B000A367FFF787FF0122274B1A60636C012B98
:1018C000FCD10322254B1A60224A936B012BFCD1D9
:1018D000013300930121224A22480433FFF7D8FE46
:1018E000052301210093204A2048FFF7D1FE002262
:1018F000022104201E4BFFF751FE0022012105208A
:101900001C4BFFF74BFE0022002107201A4BFFF76C
:1019100045FE002200210820174BFFF73FFE8023E1
:10192000DB000093002200210920134BFFF7BCFDD0
:101930000022104B00210620FFF730FE0420FFF7A5
:10194000A1FE0E4900F024F801000020FFF7F0FE90
:1019500002B010BD008000403CB0004030B00040FC
:10196000002F685900800240008C864700C002406A
:10197000001BB70040597307006CDC0240420F00A7
:1019800001480421014B1847F02000206117002076
:10199000114A936F9B0813D210665166002905D037
:1019A000FFE7FFE7FFE7516F106F704704B50028AE
:1019B00001D00020C04300F087FA002104BDC046DA
:1019C000F0B5146E556E576F166FFFF7E5FF14668E
:1019D000556657671667F0BD000000D0132370B539
:1019E0001D78012D19D014DD1E48FFF7B1FE060049
:1019F0001D48FFF7ADFE1D4C80223100200000F095
:101A0000C3F8022D06D01A48FFF79AFE194B18604A
:101A100070BD164C184BA364F5E7174B134C2360AD
:101A20006360A360E36023616361A361E361236298
:101A30006362A362E36223636363A363E363236478
:101A40006364A364E36423656365A365E365236658
:101A50006366A366E36623676367A367E367A364BC
:101A6000D1E7C0465344000053460000D82200206E
:101A70004C330000282500207D1A002007B5604661
:101A800001880A0A0230DF2AFAD1C9B2820804D3D7
:101A9000028840880004104300E00068014A50506A
:101AA000039007BDD822002051434343C9188C46F8
:101AB000110C83B24B4310B4040C614392B280B258
:101AC000504362431C041B0C001910BC5941130401
:101AD000120CC0185141614470470000132310B527
:101AE00012481C78FFF734FE0100012C0AD003DDF8
:101AF00080220F4800F048F80E48FFF721FE0E4BF9
:101B0000186010BD0A4C5422200000F03DF80B4B29
:101B10006365A365E36523666366A366E36623677F
:101B20006367A367E3672362E361E5E75346000069
:101B3000D82300204C33000028250020411B002022
:101B400007B5604601880A0A0230DF2AFAD1C9B215
:101B5000820804D3028840880004104300E0006833
:101B6000014A5050039007BDD823002001480421AA
:101B7000014B18470021002061170020014B1B6812
:101B80001847000000210020014B5B681847000047
:101B90000021002010B5002800D110BD00F018F978
:101BA000FBE7C04610B5094A0300146884B0002C56
:101BB00008D0012200910648524203A9A047012003
:101BC00004B010BD00F050F90020F9E70C2500200A
:101BD000951B002000BEFDE710B5FFF7FBFFC046D8
:101BE00070B5FFF70BFE074D074EB54209D2002432
:101BF000013E761BB60808CD984723000134B34256
:101C0000F9D170BD5021002054210020030010B5EF
:101C1000080011001B68984710BDC046F0B5464645
:101C20004F46D646C0B5437D80460E001700002BB8
:101C300046D0002A3FDD4B1E9946244B0125002447
:101C400000209A460DE04B461B5D0D3B5A42534126
:101C5000325DDBB20A2A0BD02B00013401359F42E2
:101C60001ADD002CEFD14346325D1B7D0A2AF3D1E9
:101C7000002BF1D1A04204DA4346211A1B68301828
:101C80009847434650461B68022198470134280074
:101C90002B0001359F42E4DC874204DD4346391ABC
:101CA0001B6830189847F619013E33780D3B5A42AD
:101CB000534142461375E0BCBA46B146A846F0BD52
:101CC0000368110030009847F5E7C046B4200020B3
:101CD000F0B5DE4657464E464546E0B585B017009E
:101CE0001C0006000D00FFF7C5FB0023314A121847
:101CF0004B41002B59DB304908008A46FEF7F2FAC7
:101D000001906B1C03D1300000F0E0F80500002CBE
:101D100026D12A4B98462A4B1C68002C15D0002F40
:101D200021D1284F02E02469002C0ED02368002B1B
:101D3000F9D03B68002B01D0A342F4D120002A0047
:101D40003100C0472469002CF0D1019B002B28D121
:101D5000280005B0F0BCBB46B246A946A046F0BD7F
:101D6000194B9846D7E7174B994602ABDF1D0A235C
:101D70009B4602E02469002CE7D02368002BF9D0B1
:101D80004B461B68002B01D0A342F3D12A0031003F
:101D90002000C0475B460122390020003B70C0474D
:101DA000E8E75046FEF7ECFAD2E70122074B524231
:101DB000A1E7C04640420F00102100200D1C00206A
:101DC00004250020082500201D1C0020FFFFFF7FA8
:101DD000F0B5CE46474680B583B06B460600DD1DA4
:101DE0002870FFF747FB00231A4A12184B41002BBB
:101DF0002BDB194908008846FEF774FA174B814619
:101E00001C68002C14D0164F02E02469002C0FD05F
:101E10002368002BF9D03B68002B01D0A342F4D1FA
:101E2000200001222900FFF7F9FE2469002CEFD1E0
:101E30004B46002B05D1300003B0C0BCB946B046BC
:101E4000F0BD4046FEF79CFAF5E70122054B5242F1
:101E5000CFE7C04640420F0010210020042500209B
:101E600008250020FFFFFF7F70B5040000F02EF86A
:101E700001230100050001222000FFF729FF084B84
:101E80001C68002C06D06368002B05D09847246995
:101E9000002CF8D1280070BD2469002CF3D1F9E79B
:101EA0000425002010B50822EE210248FFF766FE47
:101EB00010BDC0462025002010B508220149FFF7BB
:101EC00063FE10BD202500207047C04610B5830773
:101ED0000AD00300032102E001330B4205D01A7837
:101EE000002AF9D1181A10BD030019680C4A0D4CCC
:101EF0008A188A4322420FD15968094A04338A1842
:101F00008A43224208D15968054A04338A188A4311
:101F10002242F1D000E001331A78002AFBD1E1E738
:081F2000FFFEFEFE80808080C0
:101F28004E554B4500000000000000000000000076
:101F38000000000000000000000000000000000099
:101F48000000000000000000000000000000000089
:101F58000000000000000000000000000000000079
:101F68000000000000000000000000000000000069
:101F78000000000000000000000000000000000059
:101F88000000000000000000000000000000000049
:101F98000000000000000000000000000000000039
:101FA8000000000000000000000000000000000029
:101FB8000000000000000000000000000000000019
:101FC8000000000000000000000000000000000009
:101FD80000000000000000000000000000000000F9
:101FE80000000000000000000000000000000000E9
:101FF80000000000000000000000000000000000D9
:1020080000000000000000000000000000000000C8
:1020180000000000000000000000000000000000B8
:102028000A2A2A2A2050414E4943202A2A2A0A00ED
:102038000A000000486172647761726520616C6112
:10204800726D20256420616C726561647920636C0F
:1020580061696D6564000000486172642061737392
:102068006572740052656C6561736500322E322E9C
:10207800300000007069636F00000000666C6173D7
:10208800685F6E756B6500004170722020392032E0
:102098003032360006005250BBFF3CB67C20002090
:1020A80006005250D3F075426C2000200D0A000043
:1020B800A0000020940000209C2000208800002020
:0420C800A82000202C
:1020D00010000000000000000000000000000000F0
:1020E0000000000000000000582100200000000057
:1020F000503300004C3300005433000052330000D2
:102100004D5300004D4300005334000043340000A1
:1021100000000000000000002518002051180020D9
:10212000811900206D1B0020DD190020DD1A002020
:10213000A91800206D1800208D180020A11800207B
:10214000950C002025100020ED170020E90B002041
:04215000A51E0020A8
:0400000520000001D6
:00000001FF
